{
  "_format": "hh-sol-artifact-1",
  "contractName": "TreasuryVault",
  "sourceName": "vault/TreasuryVault.sol",
  "abi": [
    {
      "inputs": [
        {
          "internalType": "string",
          "name": "resName",
          "type": "string"
        },
        {
          "internalType": "contract IERC20",
          "name": "tToken",
          "type": "address"
        },
        {
          "internalType": "string",
          "name": "name",
          "type": "string"
        },
        {
          "internalType": "string",
          "name": "symbol",
          "type": "string"
        }
      ],
      "stateMutability": "nonpayable",
      "type": "constructor"
    },
    {
      "inputs": [
        {
          "internalType": "address",
          "name": "spender",
          "type": "address"
        },
        {
          "internalType": "uint256",
          "name": "allowance",
          "type": "uint256"
        },
        {
          "internalType": "uint256",
          "name": "needed",
          "type": "uint256"
        }
      ],
      "name": "ERC20InsufficientAllowance",
      "type": "error"
    },
    {
      "inputs": [
        {
          "internalType": "address",
          "name": "sender",
          "type": "address"
        },
        {
          "internalType": "uint256",
          "name": "balance",
          "type": "uint256"
        },
        {
          "internalType": "uint256",
          "name": "needed",
          "type": "uint256"
        }
      ],
      "name": "ERC20InsufficientBalance",
      "type": "error"
    },
    {
      "inputs": [
        {
          "internalType": "address",
          "name": "approver",
          "type": "address"
        }
      ],
      "name": "ERC20InvalidApprover",
      "type": "error"
    },
    {
      "inputs": [
        {
          "internalType": "address",
          "name": "receiver",
          "type": "address"
        }
      ],
      "name": "ERC20InvalidReceiver",
      "type": "error"
    },
    {
      "inputs": [
        {
          "internalType": "address",
          "name": "sender",
          "type": "address"
        }
      ],
      "name": "ERC20InvalidSender",
      "type": "error"
    },
    {
      "inputs": [
        {
          "internalType": "address",
          "name": "spender",
          "type": "address"
        }
      ],
      "name": "ERC20InvalidSpender",
      "type": "error"
    },
    {
      "inputs": [
        {
          "internalType": "address",
          "name": "receiver",
          "type": "address"
        },
        {
          "internalType": "uint256",
          "name": "assets",
          "type": "uint256"
        },
        {
          "internalType": "uint256",
          "name": "max",
          "type": "uint256"
        }
      ],
      "name": "ERC4626ExceededMaxDeposit",
      "type": "error"
    },
    {
      "inputs": [
        {
          "internalType": "address",
          "name": "receiver",
          "type": "address"
        },
        {
          "internalType": "uint256",
          "name": "shares",
          "type": "uint256"
        },
        {
          "internalType": "uint256",
          "name": "max",
          "type": "uint256"
        }
      ],
      "name": "ERC4626ExceededMaxMint",
      "type": "error"
    },
    {
      "inputs": [
        {
          "internalType": "address",
          "name": "owner",
          "type": "address"
        },
        {
          "internalType": "uint256",
          "name": "shares",
          "type": "uint256"
        },
        {
          "internalType": "uint256",
          "name": "max",
          "type": "uint256"
        }
      ],
      "name": "ERC4626ExceededMaxRedeem",
      "type": "error"
    },
    {
      "inputs": [
        {
          "internalType": "address",
          "name": "owner",
          "type": "address"
        },
        {
          "internalType": "uint256",
          "name": "assets",
          "type": "uint256"
        },
        {
          "internalType": "uint256",
          "name": "max",
          "type": "uint256"
        }
      ],
      "name": "ERC4626ExceededMaxWithdraw",
      "type": "error"
    },
    {
      "inputs": [
        {
          "internalType": "address",
          "name": "token",
          "type": "address"
        }
      ],
      "name": "SafeERC20FailedOperation",
      "type": "error"
    },
    {
      "anonymous": false,
      "inputs": [
        {
          "indexed": true,
          "internalType": "address",
          "name": "owner",
          "type": "address"
        },
        {
          "indexed": true,
          "internalType": "address",
          "name": "spender",
          "type": "address"
        },
        {
          "indexed": false,
          "internalType": "uint256",
          "name": "value",
          "type": "uint256"
        }
      ],
      "name": "Approval",
      "type": "event"
    },
    {
      "anonymous": false,
      "inputs": [
        {
          "indexed": true,
          "internalType": "address",
          "name": "sender",
          "type": "address"
        },
        {
          "indexed": true,
          "internalType": "address",
          "name": "owner",
          "type": "address"
        },
        {
          "indexed": false,
          "internalType": "uint256",
          "name": "assets",
          "type": "uint256"
        },
        {
          "indexed": false,
          "internalType": "uint256",
          "name": "shares",
          "type": "uint256"
        }
      ],
      "name": "Deposit",
      "type": "event"
    },
    {
      "anonymous": false,
      "inputs": [
        {
          "indexed": true,
          "internalType": "address",
          "name": "from",
          "type": "address"
        },
        {
          "indexed": true,
          "internalType": "address",
          "name": "to",
          "type": "address"
        },
        {
          "indexed": false,
          "internalType": "uint256",
          "name": "value",
          "type": "uint256"
        }
      ],
      "name": "Transfer",
      "type": "event"
    },
    {
      "anonymous": false,
      "inputs": [
        {
          "indexed": true,
          "internalType": "address",
          "name": "sender",
          "type": "address"
        },
        {
          "indexed": true,
          "internalType": "address",
          "name": "receiver",
          "type": "address"
        },
        {
          "indexed": true,
          "internalType": "address",
          "name": "owner",
          "type": "address"
        },
        {
          "indexed": false,
          "internalType": "uint256",
          "name": "assets",
          "type": "uint256"
        },
        {
          "indexed": false,
          "internalType": "uint256",
          "name": "shares",
          "type": "uint256"
        }
      ],
      "name": "Withdraw",
      "type": "event"
    },
    {
      "anonymous": false,
      "inputs": [
        {
          "indexed": true,
          "internalType": "address",
          "name": "token",
          "type": "address"
        },
        {
          "indexed": true,
          "internalType": "uint256",
          "name": "amount",
          "type": "uint256"
        },
        {
          "indexed": true,
          "internalType": "uint256",
          "name": "time",
          "type": "uint256"
        },
        {
          "indexed": false,
          "internalType": "uint256",
          "name": "count",
          "type": "uint256"
        }
      ],
      "name": "depositCom",
      "type": "event"
    },
    {
      "anonymous": false,
      "inputs": [
        {
          "indexed": true,
          "internalType": "address",
          "name": "token",
          "type": "address"
        },
        {
          "indexed": true,
          "internalType": "uint256",
          "name": "proposalNum",
          "type": "uint256"
        },
        {
          "indexed": true,
          "internalType": "uint256",
          "name": "amount",
          "type": "uint256"
        },
        {
          "indexed": false,
          "internalType": "address",
          "name": "recipient",
          "type": "address"
        }
      ],
      "name": "proposals",
      "type": "event"
    },
    {
      "inputs": [],
      "name": "accountCheck",
      "outputs": [
        {
          "internalType": "uint256",
          "name": "",
          "type": "uint256"
        }
      ],
      "stateMutability": "view",
      "type": "function"
    },
    {
      "inputs": [
        {
          "internalType": "address",
          "name": "owner",
          "type": "address"
        },
        {
          "internalType": "address",
          "name": "spender",
          "type": "address"
        }
      ],
      "name": "allowance",
      "outputs": [
        {
          "internalType": "uint256",
          "name": "",
          "type": "uint256"
        }
      ],
      "stateMutability": "view",
      "type": "function"
    },
    {
      "inputs": [
        {
          "internalType": "address",
          "name": "spender",
          "type": "address"
        },
        {
          "internalType": "uint256",
          "name": "value",
          "type": "uint256"
        }
      ],
      "name": "approve",
      "outputs": [
        {
          "internalType": "bool",
          "name": "",
          "type": "bool"
        }
      ],
      "stateMutability": "nonpayable",
      "type": "function"
    },
    {
      "inputs": [],
      "name": "asset",
      "outputs": [
        {
          "internalType": "address",
          "name": "",
          "type": "address"
        }
      ],
      "stateMutability": "view",
      "type": "function"
    },
    {
      "inputs": [
        {
          "internalType": "address",
          "name": "account",
          "type": "address"
        }
      ],
      "name": "balanceOf",
      "outputs": [
        {
          "internalType": "uint256",
          "name": "",
          "type": "uint256"
        }
      ],
      "stateMutability": "view",
      "type": "function"
    },
    {
      "inputs": [
        {
          "internalType": "uint256",
          "name": "proposal",
          "type": "uint256"
        }
      ],
      "name": "closedProposal",
      "outputs": [
        {
          "internalType": "bool",
          "name": "",
          "type": "bool"
        }
      ],
      "stateMutability": "view",
      "type": "function"
    },
    {
      "inputs": [
        {
          "internalType": "uint256",
          "name": "shares",
          "type": "uint256"
        }
      ],
      "name": "convertToAssets",
      "outputs": [
        {
          "internalType": "uint256",
          "name": "",
          "type": "uint256"
        }
      ],
      "stateMutability": "view",
      "type": "function"
    },
    {
      "inputs": [
        {
          "internalType": "uint256",
          "name": "assets",
          "type": "uint256"
        }
      ],
      "name": "convertToShares",
      "outputs": [
        {
          "internalType": "uint256",
          "name": "",
          "type": "uint256"
        }
      ],
      "stateMutability": "view",
      "type": "function"
    },
    {
      "inputs": [],
      "name": "decimals",
      "outputs": [
        {
          "internalType": "uint8",
          "name": "",
          "type": "uint8"
        }
      ],
      "stateMutability": "view",
      "type": "function"
    },
    {
      "inputs": [
        {
          "internalType": "uint256",
          "name": "assets",
          "type": "uint256"
        },
        {
          "internalType": "address",
          "name": "receiver",
          "type": "address"
        }
      ],
      "name": "deposit",
      "outputs": [
        {
          "internalType": "uint256",
          "name": "",
          "type": "uint256"
        }
      ],
      "stateMutability": "nonpayable",
      "type": "function"
    },
    {
      "inputs": [
        {
          "internalType": "uint256",
          "name": "count",
          "type": "uint256"
        }
      ],
      "name": "depositTime",
      "outputs": [
        {
          "internalType": "uint256",
          "name": "",
          "type": "uint256"
        }
      ],
      "stateMutability": "view",
      "type": "function"
    },
    {
      "inputs": [
        {
          "internalType": "address",
          "name": "token",
          "type": "address"
        },
        {
          "internalType": "address",
          "name": "sender",
          "type": "address"
        },
        {
          "internalType": "uint256",
          "name": "amount",
          "type": "uint256"
        }
      ],
      "name": "depositTreasury",
      "outputs": [],
      "stateMutability": "nonpayable",
      "type": "function"
    },
    {
      "inputs": [
        {
          "internalType": "address",
          "name": "user",
          "type": "address"
        }
      ],
      "name": "getAuth",
      "outputs": [
        {
          "internalType": "bool",
          "name": "",
          "type": "bool"
        }
      ],
      "stateMutability": "view",
      "type": "function"
    },
    {
      "inputs": [
        {
          "internalType": "address",
          "name": "newOwner",
          "type": "address"
        }
      ],
      "name": "initTreasury",
      "outputs": [
        {
          "internalType": "bool",
          "name": "",
          "type": "bool"
        }
      ],
      "stateMutability": "nonpayable",
      "type": "function"
    },
    {
      "inputs": [
        {
          "internalType": "address",
          "name": "",
          "type": "address"
        }
      ],
      "name": "maxDeposit",
      "outputs": [
        {
          "internalType": "uint256",
          "name": "",
          "type": "uint256"
        }
      ],
      "stateMutability": "view",
      "type": "function"
    },
    {
      "inputs": [
        {
          "internalType": "address",
          "name": "",
          "type": "address"
        }
      ],
      "name": "maxMint",
      "outputs": [
        {
          "internalType": "uint256",
          "name": "",
          "type": "uint256"
        }
      ],
      "stateMutability": "view",
      "type": "function"
    },
    {
      "inputs": [
        {
          "internalType": "address",
          "name": "owner",
          "type": "address"
        }
      ],
      "name": "maxRedeem",
      "outputs": [
        {
          "internalType": "uint256",
          "name": "",
          "type": "uint256"
        }
      ],
      "stateMutability": "view",
      "type": "function"
    },
    {
      "inputs": [
        {
          "internalType": "address",
          "name": "owner",
          "type": "address"
        }
      ],
      "name": "maxWithdraw",
      "outputs": [
        {
          "internalType": "uint256",
          "name": "",
          "type": "uint256"
        }
      ],
      "stateMutability": "view",
      "type": "function"
    },
    {
      "inputs": [
        {
          "internalType": "uint256",
          "name": "shares",
          "type": "uint256"
        },
        {
          "internalType": "address",
          "name": "receiver",
          "type": "address"
        }
      ],
      "name": "mint",
      "outputs": [
        {
          "internalType": "uint256",
          "name": "",
          "type": "uint256"
        }
      ],
      "stateMutability": "nonpayable",
      "type": "function"
    },
    {
      "inputs": [],
      "name": "name",
      "outputs": [
        {
          "internalType": "string",
          "name": "",
          "type": "string"
        }
      ],
      "stateMutability": "view",
      "type": "function"
    },
    {
      "inputs": [
        {
          "internalType": "uint256",
          "name": "count",
          "type": "uint256"
        }
      ],
      "name": "ownerDeposit",
      "outputs": [
        {
          "internalType": "uint256",
          "name": "",
          "type": "uint256"
        }
      ],
      "stateMutability": "view",
      "type": "function"
    },
    {
      "inputs": [
        {
          "internalType": "address",
          "name": "policy",
          "type": "address"
        },
        {
          "internalType": "contract IERC20",
          "name": "token",
          "type": "address"
        },
        {
          "internalType": "uint256",
          "name": "amount",
          "type": "uint256"
        }
      ],
      "name": "policyApproved",
      "outputs": [
        {
          "internalType": "bool",
          "name": "",
          "type": "bool"
        }
      ],
      "stateMutability": "nonpayable",
      "type": "function"
    },
    {
      "inputs": [
        {
          "internalType": "uint256",
          "name": "assets",
          "type": "uint256"
        }
      ],
      "name": "previewDeposit",
      "outputs": [
        {
          "internalType": "uint256",
          "name": "",
          "type": "uint256"
        }
      ],
      "stateMutability": "view",
      "type": "function"
    },
    {
      "inputs": [
        {
          "internalType": "uint256",
          "name": "shares",
          "type": "uint256"
        }
      ],
      "name": "previewMint",
      "outputs": [
        {
          "internalType": "uint256",
          "name": "",
          "type": "uint256"
        }
      ],
      "stateMutability": "view",
      "type": "function"
    },
    {
      "inputs": [
        {
          "internalType": "uint256",
          "name": "shares",
          "type": "uint256"
        }
      ],
      "name": "previewRedeem",
      "outputs": [
        {
          "internalType": "uint256",
          "name": "",
          "type": "uint256"
        }
      ],
      "stateMutability": "view",
      "type": "function"
    },
    {
      "inputs": [
        {
          "internalType": "uint256",
          "name": "assets",
          "type": "uint256"
        }
      ],
      "name": "previewWithdraw",
      "outputs": [
        {
          "internalType": "uint256",
          "name": "",
          "type": "uint256"
        }
      ],
      "stateMutability": "view",
      "type": "function"
    },
    {
      "inputs": [],
      "name": "proposalCheck",
      "outputs": [
        {
          "internalType": "uint256",
          "name": "",
          "type": "uint256"
        }
      ],
      "stateMutability": "view",
      "type": "function"
    },
    {
      "inputs": [
        {
          "internalType": "address",
          "name": "token",
          "type": "address"
        },
        {
          "internalType": "uint256",
          "name": "proposal",
          "type": "uint256"
        },
        {
          "internalType": "uint256",
          "name": "amount",
          "type": "uint256"
        }
      ],
      "name": "proposalClose",
      "outputs": [
        {
          "internalType": "bool",
          "name": "",
          "type": "bool"
        }
      ],
      "stateMutability": "nonpayable",
      "type": "function"
    },
    {
      "inputs": [
        {
          "internalType": "uint256",
          "name": "assets",
          "type": "uint256"
        },
        {
          "internalType": "address",
          "name": "receiver",
          "type": "address"
        },
        {
          "internalType": "uint256",
          "name": "proposal",
          "type": "uint256"
        }
      ],
      "name": "proposalDeposit",
      "outputs": [
        {
          "internalType": "uint256",
          "name": "",
          "type": "uint256"
        }
      ],
      "stateMutability": "nonpayable",
      "type": "function"
    },
    {
      "inputs": [
        {
          "internalType": "uint256",
          "name": "shares",
          "type": "uint256"
        },
        {
          "internalType": "address",
          "name": "receiver",
          "type": "address"
        },
        {
          "internalType": "uint256",
          "name": "proposal",
          "type": "uint256"
        }
      ],
      "name": "proposalMint",
      "outputs": [
        {
          "internalType": "uint256",
          "name": "",
          "type": "uint256"
        }
      ],
      "stateMutability": "nonpayable",
      "type": "function"
    },
    {
      "inputs": [
        {
          "internalType": "address",
          "name": "token",
          "type": "address"
        },
        {
          "internalType": "uint256",
          "name": "amount",
          "type": "uint256"
        },
        {
          "internalType": "address",
          "name": "receiver",
          "type": "address"
        }
      ],
      "name": "proposalOpen",
      "outputs": [
        {
          "internalType": "uint256",
          "name": "",
          "type": "uint256"
        }
      ],
      "stateMutability": "nonpayable",
      "type": "function"
    },
    {
      "inputs": [
        {
          "internalType": "uint256",
          "name": "proposal",
          "type": "uint256"
        }
      ],
      "name": "proposalReceived",
      "outputs": [
        {
          "internalType": "uint256",
          "name": "",
          "type": "uint256"
        }
      ],
      "stateMutability": "view",
      "type": "function"
    },
    {
      "inputs": [
        {
          "internalType": "uint256",
          "name": "proposal",
          "type": "uint256"
        }
      ],
      "name": "proposalReceiver",
      "outputs": [
        {
          "internalType": "address",
          "name": "",
          "type": "address"
        }
      ],
      "stateMutability": "view",
      "type": "function"
    },
    {
      "inputs": [
        {
          "internalType": "uint256",
          "name": "shares",
          "type": "uint256"
        },
        {
          "internalType": "address",
          "name": "receiver",
          "type": "address"
        },
        {
          "internalType": "address",
          "name": "owner",
          "type": "address"
        },
        {
          "internalType": "uint256",
          "name": "proposal",
          "type": "uint256"
        }
      ],
      "name": "proposalRedeem",
      "outputs": [
        {
          "internalType": "uint256",
          "name": "",
          "type": "uint256"
        }
      ],
      "stateMutability": "nonpayable",
      "type": "function"
    },
    {
      "inputs": [
        {
          "internalType": "uint256",
          "name": "proposal",
          "type": "uint256"
        }
      ],
      "name": "proposalToken",
      "outputs": [
        {
          "internalType": "address",
          "name": "",
          "type": "address"
        }
      ],
      "stateMutability": "view",
      "type": "function"
    },
    {
      "inputs": [
        {
          "internalType": "uint256",
          "name": "assets",
          "type": "uint256"
        },
        {
          "internalType": "address",
          "name": "receiver",
          "type": "address"
        },
        {
          "internalType": "address",
          "name": "owner",
          "type": "address"
        },
        {
          "internalType": "uint256",
          "name": "proposal",
          "type": "uint256"
        }
      ],
      "name": "proposalWithdraw",
      "outputs": [
        {
          "internalType": "uint256",
          "name": "",
          "type": "uint256"
        }
      ],
      "stateMutability": "nonpayable",
      "type": "function"
    },
    {
      "inputs": [
        {
          "internalType": "uint256",
          "name": "proposal",
          "type": "uint256"
        }
      ],
      "name": "proposalWithdrew",
      "outputs": [
        {
          "internalType": "uint256",
          "name": "",
          "type": "uint256"
        }
      ],
      "stateMutability": "view",
      "type": "function"
    },
    {
      "inputs": [
        {
          "internalType": "uint256",
          "name": "shares",
          "type": "uint256"
        },
        {
          "internalType": "address",
          "name": "receiver",
          "type": "address"
        },
        {
          "internalType": "address",
          "name": "owner",
          "type": "address"
        }
      ],
      "name": "redeem",
      "outputs": [
        {
          "internalType": "uint256",
          "name": "",
          "type": "uint256"
        }
      ],
      "stateMutability": "nonpayable",
      "type": "function"
    },
    {
      "inputs": [],
      "name": "symbol",
      "outputs": [
        {
          "internalType": "string",
          "name": "",
          "type": "string"
        }
      ],
      "stateMutability": "view",
      "type": "function"
    },
    {
      "inputs": [
        {
          "internalType": "uint256",
          "name": "count",
          "type": "uint256"
        }
      ],
      "name": "tokenDeposit",
      "outputs": [
        {
          "internalType": "address",
          "name": "",
          "type": "address"
        }
      ],
      "stateMutability": "view",
      "type": "function"
    },
    {
      "inputs": [],
      "name": "totalAssets",
      "outputs": [
        {
          "internalType": "uint256",
          "name": "",
          "type": "uint256"
        }
      ],
      "stateMutability": "view",
      "type": "function"
    },
    {
      "inputs": [
        {
          "internalType": "uint256",
          "name": "proposal",
          "type": "uint256"
        }
      ],
      "name": "totalShares",
      "outputs": [
        {
          "internalType": "uint256",
          "name": "",
          "type": "uint256"
        }
      ],
      "stateMutability": "view",
      "type": "function"
    },
    {
      "inputs": [],
      "name": "totalSupply",
      "outputs": [
        {
          "internalType": "uint256",
          "name": "",
          "type": "uint256"
        }
      ],
      "stateMutability": "view",
      "type": "function"
    },
    {
      "inputs": [
        {
          "internalType": "address",
          "name": "to",
          "type": "address"
        },
        {
          "internalType": "uint256",
          "name": "value",
          "type": "uint256"
        }
      ],
      "name": "transfer",
      "outputs": [
        {
          "internalType": "bool",
          "name": "",
          "type": "bool"
        }
      ],
      "stateMutability": "nonpayable",
      "type": "function"
    },
    {
      "inputs": [
        {
          "internalType": "address",
          "name": "from",
          "type": "address"
        },
        {
          "internalType": "address",
          "name": "to",
          "type": "address"
        },
        {
          "internalType": "uint256",
          "name": "value",
          "type": "uint256"
        }
      ],
      "name": "transferFrom",
      "outputs": [
        {
          "internalType": "bool",
          "name": "",
          "type": "bool"
        }
      ],
      "stateMutability": "nonpayable",
      "type": "function"
    },
    {
      "inputs": [],
      "name": "treasuryName",
      "outputs": [
        {
          "internalType": "string",
          "name": "",
          "type": "string"
        }
      ],
      "stateMutability": "view",
      "type": "function"
    },
    {
      "inputs": [
        {
          "internalType": "address",
          "name": "user",
          "type": "address"
        },
        {
          "internalType": "uint256",
          "name": "proposal",
          "type": "uint256"
        }
      ],
      "name": "userDeposit",
      "outputs": [
        {
          "internalType": "uint256",
          "name": "",
          "type": "uint256"
        }
      ],
      "stateMutability": "view",
      "type": "function"
    },
    {
      "inputs": [
        {
          "internalType": "address",
          "name": "user",
          "type": "address"
        }
      ],
      "name": "userNumOfProposal",
      "outputs": [
        {
          "internalType": "uint256",
          "name": "",
          "type": "uint256"
        }
      ],
      "stateMutability": "view",
      "type": "function"
    },
    {
      "inputs": [
        {
          "internalType": "address",
          "name": "user",
          "type": "address"
        },
        {
          "internalType": "uint256",
          "name": "proposal",
          "type": "uint256"
        }
      ],
      "name": "userProposal",
      "outputs": [
        {
          "internalType": "uint256",
          "name": "",
          "type": "uint256"
        }
      ],
      "stateMutability": "view",
      "type": "function"
    },
    {
      "inputs": [
        {
          "internalType": "address",
          "name": "user",
          "type": "address"
        },
        {
          "internalType": "uint256",
          "name": "proposal",
          "type": "uint256"
        }
      ],
      "name": "userWithdrew",
      "outputs": [
        {
          "internalType": "uint256",
          "name": "",
          "type": "uint256"
        }
      ],
      "stateMutability": "view",
      "type": "function"
    },
    {
      "inputs": [],
      "name": "whosOwner",
      "outputs": [
        {
          "internalType": "address",
          "name": "",
          "type": "address"
        }
      ],
      "stateMutability": "view",
      "type": "function"
    },
    {
      "inputs": [
        {
          "internalType": "uint256",
          "name": "assets",
          "type": "uint256"
        },
        {
          "internalType": "address",
          "name": "receiver",
          "type": "address"
        },
        {
          "internalType": "address",
          "name": "owner",
          "type": "address"
        }
      ],
      "name": "withdraw",
      "outputs": [
        {
          "internalType": "uint256",
          "name": "",
          "type": "uint256"
        }
      ],
      "stateMutability": "nonpayable",
      "type": "function"
    }
  ],
  "bytecode": "0x60c06040523480156200001157600080fd5b506040516200426b3803806200426b833981810160405281019062000037919062000490565b82828281600390816200004b9190620007aa565b5080600490816200005d9190620007aa565b50505060008062000074836200016a60201b60201c565b91509150816200008657601262000088565b805b60ff1660a08160ff16815250508273ffffffffffffffffffffffffffffffffffffffff1660808173ffffffffffffffffffffffffffffffffffffffff168152505050505033600560006101000a81548173ffffffffffffffffffffffffffffffffffffffff021916908373ffffffffffffffffffffffffffffffffffffffff16021790555083600890816200011e9190620007aa565b5082600960006101000a81548173ffffffffffffffffffffffffffffffffffffffff021916908373ffffffffffffffffffffffffffffffffffffffff160217905550505050506200095a565b6000806000808473ffffffffffffffffffffffffffffffffffffffff1660405160240160405160208183030381529060405263313ce56760e01b6020820180517bffffffffffffffffffffffffffffffffffffffffffffffffffffffff8381831617835250505050604051620001e19190620008de565b600060405180830381855afa9150503d80600081146200021e576040519150601f19603f3d011682016040523d82523d6000602084013e62000223565b606091505b50915091508180156200023857506020815110155b15620002755760008180602001905181019062000256919062000928565b905060ff801681116200027357600181945094505050506200027f565b505b6000809350935050505b915091565b6000604051905090565b600080fd5b600080fd5b600080fd5b600080fd5b6000601f19601f8301169050919050565b7f4e487b7100000000000000000000000000000000000000000000000000000000600052604160045260246000fd5b620002ed82620002a2565b810181811067ffffffffffffffff821117156200030f576200030e620002b3565b5b80604052505050565b60006200032462000284565b9050620003328282620002e2565b919050565b600067ffffffffffffffff821115620003555762000354620002b3565b5b6200036082620002a2565b9050602081019050919050565b60005b838110156200038d57808201518184015260208101905062000370565b60008484015250505050565b6000620003b0620003aa8462000337565b62000318565b905082815260208101848484011115620003cf57620003ce6200029d565b5b620003dc8482856200036d565b509392505050565b600082601f830112620003fc57620003fb62000298565b5b81516200040e84826020860162000399565b91505092915050565b600073ffffffffffffffffffffffffffffffffffffffff82169050919050565b6000620004448262000417565b9050919050565b6000620004588262000437565b9050919050565b6200046a816200044b565b81146200047657600080fd5b50565b6000815190506200048a816200045f565b92915050565b60008060008060808587031215620004ad57620004ac6200028e565b5b600085015167ffffffffffffffff811115620004ce57620004cd62000293565b5b620004dc87828801620003e4565b9450506020620004ef8782880162000479565b935050604085015167ffffffffffffffff81111562000513576200051262000293565b5b6200052187828801620003e4565b925050606085015167ffffffffffffffff81111562000545576200054462000293565b5b6200055387828801620003e4565b91505092959194509250565b600081519050919050565b7f4e487b7100000000000000000000000000000000000000000000000000000000600052602260045260246000fd5b60006002820490506001821680620005b257607f821691505b602082108103620005c857620005c76200056a565b5b50919050565b60008190508160005260206000209050919050565b60006020601f8301049050919050565b600082821b905092915050565b600060088302620006327fffffffffffffffffffffffffffffffffffffffffffffffffffffffffffffffff82620005f3565b6200063e8683620005f3565b95508019841693508086168417925050509392505050565b6000819050919050565b6000819050919050565b60006200068b620006856200067f8462000656565b62000660565b62000656565b9050919050565b6000819050919050565b620006a7836200066a565b620006bf620006b68262000692565b84845462000600565b825550505050565b600090565b620006d6620006c7565b620006e38184846200069c565b505050565b5b818110156200070b57620006ff600082620006cc565b600181019050620006e9565b5050565b601f8211156200075a576200072481620005ce565b6200072f84620005e3565b810160208510156200073f578190505b620007576200074e85620005e3565b830182620006e8565b50505b505050565b600082821c905092915050565b60006200077f600019846008026200075f565b1980831691505092915050565b60006200079a83836200076c565b9150826002028217905092915050565b620007b5826200055f565b67ffffffffffffffff811115620007d157620007d0620002b3565b5b620007dd825462000599565b620007ea8282856200070f565b600060209050601f8311600181146200082257600084156200080d578287015190505b6200081985826200078c565b86555062000889565b601f1984166200083286620005ce565b60005b828110156200085c5784890151825560018201915060208501945060208101905062000835565b868310156200087c578489015162000878601f8916826200076c565b8355505b6001600288020188555050505b505050505050565b600081519050919050565b600081905092915050565b6000620008b48262000891565b620008c081856200089c565b9350620008d28185602086016200036d565b80840191505092915050565b6000620008ec8284620008a7565b915081905092915050565b620009028162000656565b81146200090e57600080fd5b50565b6000815190506200092281620008f7565b92915050565b6000602082840312156200094157620009406200028e565b5b6000620009518482850162000911565b91505092915050565b60805160a0516138eb620009806000396000610fc301526000610ff501526138eb6000f3fe608060405234801561001057600080fd5b506004361061030c5760003560e01c806370a082311161019d578063c49724ec116100e9578063d905777e116100a2578063dd62ed3e1161007c578063dd62ed3e14610b49578063e1fe7d2314610b79578063ecc5caef14610ba9578063ef8b30f714610bd95761030c565b8063d905777e14610acb578063d9d7792314610afb578063daa85ff014610b2b5761030c565b8063c49724ec146109ab578063c63d75b6146109db578063c6e6f59214610a0b578063c97a487014610a3b578063ce96cb7714610a6b578063d63138e214610a9b5761030c565b8063a9059cbb11610156578063b460af9411610130578063b460af94146108eb578063b52d73431461091b578063ba0876521461094b578063bb9afc011461097b5761030c565b8063a9059cbb1461085b578063ad423b871461088b578063b3d7f6b9146108bb5761030c565b806370a082311461074d5780638db59ab41461077d57806394bf804d146107ad57806395d89b41146107dd57806399ea4c01146107fb5780639bcd9a2b1461082b5761030c565b80632d89cb081161025c5780634cdad5061161021557806355f86df8116101ef57806355f86df81461068d578063622c74c5146106bd5780636e4e3e2d146106ed5780636e553f651461071d5761030c565b80634cdad506146106235780634d238c181461065357806353b7acdf1461066f5761030c565b80632d89cb0814610527578063313ce5671461055757806338d52e0f146105755780633ff2fa7114610593578063402d267d146105c357806347466dc3146105f35761030c565b80630f6992eb116102c957806318160ddd116102a357806318160ddd1461049d578063226b0d0a146104bb57806323b872dd146104d957806328ea7460146105095761030c565b80630f6992eb1461040d57806313f2dad01461043d578063141833dc1461046d5761030c565b806301e1d1141461031157806306fdde031461032f57806307a2d13a1461034d578063095ea7b31461037d5780630a28a477146103ad5780630b5e5285146103dd575b600080fd5b610319610c09565b6040516103269190612d6d565b60405180910390f35b610337610c91565b6040516103449190612e18565b60405180910390f35b61036760048036038101906103629190612e6b565b610d23565b6040516103749190612d6d565b60405180910390f35b61039760048036038101906103929190612ef6565b610d37565b6040516103a49190612f51565b60405180910390f35b6103c760048036038101906103c29190612e6b565b610d5a565b6040516103d49190612d6d565b60405180910390f35b6103f760048036038101906103f29190612f6c565b610d6e565b6040516104049190612f51565b60405180910390f35b61042760048036038101906104229190612f6c565b610e72565b6040516104349190612d6d565b60405180910390f35b61045760048036038101906104529190612e6b565b610ecf565b6040516104649190612d6d565b60405180910390f35b61048760048036038101906104829190612e6b565b610eec565b6040516104949190612d6d565b60405180910390f35b6104a5610f0c565b6040516104b29190612d6d565b60405180910390f35b6104c3610f16565b6040516104d09190612d6d565b60405180910390f35b6104f360048036038101906104ee9190612f99565b610f20565b6040516105009190612f51565b60405180910390f35b610511610f4f565b60405161051e9190612d6d565b60405180910390f35b610541600480360381019061053c9190612ef6565b610f59565b60405161054e9190612d6d565b60405180910390f35b61055f610fb7565b60405161056c9190613008565b60405180910390f35b61057d610ff1565b60405161058a9190613032565b60405180910390f35b6105ad60048036038101906105a89190612e6b565b611019565b6040516105ba9190612d6d565b60405180910390f35b6105dd60048036038101906105d89190612f6c565b611039565b6040516105ea9190612d6d565b60405180910390f35b61060d60048036038101906106089190612e6b565b611063565b60405161061a9190612f51565b60405180910390f35b61063d60048036038101906106389190612e6b565b61108d565b60405161064a9190612d6d565b60405180910390f35b61066d60048036038101906106689190612f99565b6110a1565b005b6106776112d4565b6040516106849190612e18565b60405180910390f35b6106a760048036038101906106a2919061304d565b611366565b6040516106b49190612d6d565b60405180910390f35b6106d760048036038101906106d291906130a0565b611505565b6040516106e49190612f51565b60405180910390f35b61070760048036038101906107029190612f6c565b6115dc565b6040516107149190612f51565b60405180910390f35b610737600480360381019061073291906130f3565b611632565b6040516107449190612d6d565b60405180910390f35b61076760048036038101906107629190612f6c565b6116b4565b6040516107749190612d6d565b60405180910390f35b61079760048036038101906107929190612e6b565b6116fc565b6040516107a49190613032565b60405180910390f35b6107c760048036038101906107c291906130f3565b61173c565b6040516107d49190612d6d565b60405180910390f35b6107e56117be565b6040516107f29190612e18565b60405180910390f35b61081560048036038101906108109190613133565b611850565b6040516108229190612d6d565b60405180910390f35b61084560048036038101906108409190612ef6565b611908565b6040516108529190612d6d565b60405180910390f35b61087560048036038101906108709190612ef6565b611966565b6040516108829190612f51565b60405180910390f35b6108a560048036038101906108a09190612e6b565b611989565b6040516108b29190612d6d565b60405180910390f35b6108d560048036038101906108d09190612e6b565b6119a9565b6040516108e29190612d6d565b60405180910390f35b6109056004803603810190610900919061319a565b6119bd565b6040516109129190612d6d565b60405180910390f35b61093560048036038101906109309190612ef6565b611a41565b6040516109429190612d6d565b60405180910390f35b6109656004803603810190610960919061319a565b611a9f565b6040516109729190612d6d565b60405180910390f35b61099560048036038101906109909190612e6b565b611b23565b6040516109a29190613032565b60405180910390f35b6109c560048036038101906109c09190613133565b611b63565b6040516109d29190612d6d565b60405180910390f35b6109f560048036038101906109f09190612f6c565b611c1b565b604051610a029190612d6d565b60405180910390f35b610a256004803603810190610a209190612e6b565b611c45565b604051610a329190612d6d565b60405180910390f35b610a556004803603810190610a5091906131ed565b611c59565b604051610a629190612d6d565b60405180910390f35b610a856004803603810190610a809190612f6c565b611d9d565b604051610a929190612d6d565b60405180910390f35b610ab56004803603810190610ab0919061327e565b611db9565b604051610ac29190612f51565b60405180910390f35b610ae56004803603810190610ae09190612f6c565b611e45565b604051610af29190612d6d565b60405180910390f35b610b156004803603810190610b10919061304d565b611e57565b604051610b229190612d6d565b60405180910390f35b610b33611ff6565b604051610b409190613032565b60405180910390f35b610b636004803603810190610b5e91906132d1565b612020565b604051610b709190612d6d565b60405180910390f35b610b936004803603810190610b8e9190612e6b565b6120a7565b604051610ba09190613032565b60405180910390f35b610bc36004803603810190610bbe9190612e6b565b6120e7565b604051610bd09190612d6d565b60405180910390f35b610bf36004803603810190610bee9190612e6b565b612107565b604051610c009190612d6d565b60405180910390f35b6000610c13610ff1565b73ffffffffffffffffffffffffffffffffffffffff166370a08231306040518263ffffffff1660e01b8152600401610c4b9190613032565b602060405180830381865afa158015610c68573d6000803e3d6000fd5b505050506040513d601f19601f82011682018060405250810190610c8c9190613326565b905090565b606060038054610ca090613382565b80601f0160208091040260200160405190810160405280929190818152602001828054610ccc90613382565b8015610d195780601f10610cee57610100808354040283529160200191610d19565b820191906000526020600020905b815481529060010190602001808311610cfc57829003601f168201915b5050505050905090565b6000610d3082600061211b565b9050919050565b600080610d42612174565b9050610d4f81858561217c565b600191505092915050565b6000610d6782600161218e565b9050919050565b6000600560009054906101000a900473ffffffffffffffffffffffffffffffffffffffff1673ffffffffffffffffffffffffffffffffffffffff163373ffffffffffffffffffffffffffffffffffffffff1614610dca57600080fd5b600960009054906101000a900473ffffffffffffffffffffffffffffffffffffffff1673ffffffffffffffffffffffffffffffffffffffff16630b5e5285836040518263ffffffff1660e01b8152600401610e259190613032565b6020604051808303816000875af1158015610e44573d6000803e3d6000fd5b505050506040513d601f19601f82011682018060405250810190610e6891906133df565b5060019050919050565b6000600d60008373ffffffffffffffffffffffffffffffffffffffff1673ffffffffffffffffffffffffffffffffffffffff1681526020019081526020016000206000808152602001908152602001600020600001549050919050565b6000600b6000838152602001908152602001600020549050919050565b6000600e6000838152602001908152602001600020600201549050919050565b6000600254905090565b6000600654905090565b600080610f2b612174565b9050610f388582856121e7565b610f4385858561227c565b60019150509392505050565b6000600754905090565b6000600d60008473ffffffffffffffffffffffffffffffffffffffff1673ffffffffffffffffffffffffffffffffffffffff168152602001908152602001600020600083815260200190815260200160002060000154905092915050565b6000610fc1612370565b7f0000000000000000000000000000000000000000000000000000000000000000610fec919061343b565b905090565b60007f0000000000000000000000000000000000000000000000000000000000000000905090565b6000600e6000838152602001908152602001600020600001549050919050565b60007fffffffffffffffffffffffffffffffffffffffffffffffffffffffffffffffff9050919050565b6000600c600083815260200190815260200160002060009054906101000a900460ff169050919050565b600061109a82600061211b565b9050919050565b600073ffffffffffffffffffffffffffffffffffffffff168373ffffffffffffffffffffffffffffffffffffffff1603611110576040517f08c379a0000000000000000000000000000000000000000000000000000000008152600401611107906134bc565b60405180910390fd5b600073ffffffffffffffffffffffffffffffffffffffff168273ffffffffffffffffffffffffffffffffffffffff160361117f576040517f08c379a000000000000000000000000000000000000000000000000000000000815260040161117690613528565b60405180910390fd5b600081116111c2576040517f08c379a00000000000000000000000000000000000000000000000000000000081526004016111b990613594565b60405180910390fd5b6111ce83833084612375565b6000429050600060016111df610f4f565b6111e991906135b4565b905082600e60008381526020019081526020016000206002018190555081600e60008381526020019081526020016000206000018190555084600e600083815260200190815260200160002060010160006101000a81548173ffffffffffffffffffffffffffffffffffffffff021916908373ffffffffffffffffffffffffffffffffffffffff1602179055508060078190555081838673ffffffffffffffffffffffffffffffffffffffff167f67af91a181add22ce3d15778256346ca609fc51d73db27919a045b24b319775b846040516112c59190612d6d565b60405180910390a45050505050565b6060600880546112e390613382565b80601f016020809104026020016040519081016040528092919081815260200182805461130f90613382565b801561135c5780601f106113315761010080835404028352916020019161135c565b820191906000526020600020905b81548152906001019060200180831161133f57829003601f168201915b5050505050905090565b600061137182611063565b1561137b57600080fd5b81611384610f16565b101561138f57600080fd5b600061139b8585611632565b90506113af6113a984610ecf565b826123f7565b600b600085815260200190815260200160002081905550600060016113d333610e72565b6113dd91906135b4565b90506113f26113ec8686611a41565b836123f7565b600d60008773ffffffffffffffffffffffffffffffffffffffff1673ffffffffffffffffffffffffffffffffffffffff16815260200190815260200160002060008681526020019081526020016000206001018190555080600d60003373ffffffffffffffffffffffffffffffffffffffff1673ffffffffffffffffffffffffffffffffffffffff16815260200190815260200160002060008081526020019081526020016000206000018190555083600d60003373ffffffffffffffffffffffffffffffffffffffff1673ffffffffffffffffffffffffffffffffffffffff16815260200190815260200160002060008381526020019081526020016000206000018190555081925050509392505050565b600082611510610f16565b101561151b57600080fd5b61152483611063565b1561152e57600080fd5b61153a84333085612375565b6001600c600085815260200190815260200160002060006101000a81548160ff02191690831515021790555081600f60008581526020019081526020016000206003018190555081838573ffffffffffffffffffffffffffffffffffffffff167feb9d3ae5f07a946bb1827236de0314d7d3952736b8652c5a75beaa0521b3b2d0336040516115c99190613032565b60405180910390a4600190509392505050565b6000600a60008373ffffffffffffffffffffffffffffffffffffffff1673ffffffffffffffffffffffffffffffffffffffff16815260200190815260200160002060009054906101000a900460ff169050919050565b60008061163e83611039565b905080841115611689578284826040517f79012fb2000000000000000000000000000000000000000000000000000000008152600401611680939291906135e8565b60405180910390fd5b600061169485612107565b90506116a96116a1612174565b85878461240d565b809250505092915050565b60008060008373ffffffffffffffffffffffffffffffffffffffff1673ffffffffffffffffffffffffffffffffffffffff168152602001908152602001600020549050919050565b6000600f600083815260200190815260200160002060020160009054906101000a900473ffffffffffffffffffffffffffffffffffffffff169050919050565b60008061174883611c1b565b905080841115611793578284826040517f284ff66700000000000000000000000000000000000000000000000000000000815260040161178a939291906135e8565b60405180910390fd5b600061179e856119a9565b90506117b36117ab612174565b85838861240d565b809250505092915050565b6060600480546117cd90613382565b80601f01602080910402602001604051908101604052809291908181526020018280546117f990613382565b80156118465780601f1061181b57610100808354040283529160200191611846565b820191906000526020600020905b81548152906001019060200180831161182957829003601f168201915b5050505050905090565b600061185b82611063565b61186457600080fd5b61186e8483611a41565b6118788584611908565b111561188357600080fd5b6000611890868686611a9f565b90506118a561189f8685611908565b826123f7565b600d60008773ffffffffffffffffffffffffffffffffffffffff1673ffffffffffffffffffffffffffffffffffffffff16815260200190815260200160002060008581526020019081526020016000206002018190555080915050949350505050565b6000600d60008473ffffffffffffffffffffffffffffffffffffffff1673ffffffffffffffffffffffffffffffffffffffff168152602001908152602001600020600083815260200190815260200160002060020154905092915050565b600080611971612174565b905061197e81858561227c565b600191505092915050565b6000600f6000838152602001908152602001600020600301549050919050565b60006119b682600161211b565b9050919050565b6000806119c983611d9d565b905080851115611a14578285826040517ffe9cceec000000000000000000000000000000000000000000000000000000008152600401611a0b939291906135e8565b60405180910390fd5b6000611a1f86610d5a565b9050611a35611a2c612174565b86868985612497565b80925050509392505050565b6000600d60008473ffffffffffffffffffffffffffffffffffffffff1673ffffffffffffffffffffffffffffffffffffffff168152602001908152602001600020600083815260200190815260200160002060010154905092915050565b600080611aab83611e45565b905080851115611af6578285826040517fb94abeec000000000000000000000000000000000000000000000000000000008152600401611aed939291906135e8565b60405180910390fd5b6000611b018661108d565b9050611b17611b0e612174565b8686848a612497565b80925050509392505050565b6000600f600083815260200190815260200160002060000160009054906101000a900473ffffffffffffffffffffffffffffffffffffffff169050919050565b6000611b6e82611063565b611b7757600080fd5b611b818483611a41565b611b8b8584611908565b1015611b9657600080fd5b6000611ba38686866119bd565b9050611bb8611bb28685611908565b826123f7565b600d60008773ffffffffffffffffffffffffffffffffffffffff1673ffffffffffffffffffffffffffffffffffffffff16815260200190815260200160002060008581526020019081526020016000206002018190555080915050949350505050565b60007fffffffffffffffffffffffffffffffffffffffffffffffffffffffffffffffff9050919050565b6000611c5282600061218e565b9050919050565b6000806001611c66610f16565b611c7091906135b4565b905084600f600083815260200190815260200160002060000160006101000a81548173ffffffffffffffffffffffffffffffffffffffff021916908373ffffffffffffffffffffffffffffffffffffffff16021790555083600f60008381526020019081526020016000206001018190555082600f600083815260200190815260200160002060020160006101000a81548173ffffffffffffffffffffffffffffffffffffffff021916908373ffffffffffffffffffffffffffffffffffffffff16021790555080600681905550836006548673ffffffffffffffffffffffffffffffffffffffff167feb9d3ae5f07a946bb1827236de0314d7d3952736b8652c5a75beaa0521b3b2d086604051611d889190613032565b60405180910390a46006549150509392505050565b6000611db2611dab836116b4565b600061211b565b9050919050565b60008273ffffffffffffffffffffffffffffffffffffffff1663095ea7b385846040518363ffffffff1660e01b8152600401611df692919061361f565b6020604051808303816000875af1158015611e15573d6000803e3d6000fd5b505050506040513d601f19601f82011682018060405250810190611e3991906133df565b50600190509392505050565b6000611e50826116b4565b9050919050565b6000611e6282611063565b15611e6c57600080fd5b81611e75610f16565b1115611e8057600080fd5b6000611e8c858561173c565b9050611ea0611e9a84610ecf565b826123f7565b600b60008581526020019081526020016000208190555060006001611ec433610e72565b611ece91906135b4565b9050611ee3611edd8686611a41565b836123f7565b600d60008773ffffffffffffffffffffffffffffffffffffffff1673ffffffffffffffffffffffffffffffffffffffff16815260200190815260200160002060008681526020019081526020016000206001018190555080600d60003373ffffffffffffffffffffffffffffffffffffffff1673ffffffffffffffffffffffffffffffffffffffff16815260200190815260200160002060008081526020019081526020016000206000018190555083600d60003373ffffffffffffffffffffffffffffffffffffffff1673ffffffffffffffffffffffffffffffffffffffff16815260200190815260200160002060008381526020019081526020016000206000018190555081925050509392505050565b6000600560009054906101000a900473ffffffffffffffffffffffffffffffffffffffff16905090565b6000600160008473ffffffffffffffffffffffffffffffffffffffff1673ffffffffffffffffffffffffffffffffffffffff16815260200190815260200160002060008373ffffffffffffffffffffffffffffffffffffffff1673ffffffffffffffffffffffffffffffffffffffff16815260200190815260200160002054905092915050565b6000600e600083815260200190815260200160002060010160009054906101000a900473ffffffffffffffffffffffffffffffffffffffff169050919050565b6000600f6000838152602001908152602001600020600101549050919050565b600061211482600061218e565b9050919050565b600061216c600161212a610c09565b61213491906135b4565b61213c612370565b600a612148919061377b565b612150610f0c565b61215a91906135b4565b8486612577909392919063ffffffff16565b905092915050565b600033905090565b61218983838360016125c6565b505050565b60006121df61219b612370565b600a6121a7919061377b565b6121af610f0c565b6121b991906135b4565b60016121c3610c09565b6121cd91906135b4565b8486612577909392919063ffffffff16565b905092915050565b60006121f38484612020565b90507fffffffffffffffffffffffffffffffffffffffffffffffffffffffffffffffff8110156122765781811015612266578281836040517ffb8f41b200000000000000000000000000000000000000000000000000000000815260040161225d939291906135e8565b60405180910390fd5b612275848484840360006125c6565b5b50505050565b600073ffffffffffffffffffffffffffffffffffffffff168373ffffffffffffffffffffffffffffffffffffffff16036122ee5760006040517f96c6fd1e0000000000000000000000000000000000000000000000000000000081526004016122e59190613032565b60405180910390fd5b600073ffffffffffffffffffffffffffffffffffffffff168273ffffffffffffffffffffffffffffffffffffffff16036123605760006040517fec442f050000000000000000000000000000000000000000000000000000000081526004016123579190613032565b60405180910390fd5b61236b83838361279d565b505050565b600090565b6123f1848573ffffffffffffffffffffffffffffffffffffffff166323b872dd8686866040516024016123aa939291906137c6565b604051602081830303815290604052915060e01b6020820180517bffffffffffffffffffffffffffffffffffffffffffffffffffffffff83818316178352505050506129c2565b50505050565b6000818361240591906135b4565b905092915050565b612420612418610ff1565b853085612375565b61242a8382612a64565b8273ffffffffffffffffffffffffffffffffffffffff168473ffffffffffffffffffffffffffffffffffffffff167fdcbc1c05240f31ff3ad067ef1ee35ce4997762752e3a095284754544f4c709d784846040516124899291906137fd565b60405180910390a350505050565b8273ffffffffffffffffffffffffffffffffffffffff168573ffffffffffffffffffffffffffffffffffffffff16146124d6576124d58386836121e7565b5b6124e08382612ae6565b6124f26124eb610ff1565b8584612b68565b8273ffffffffffffffffffffffffffffffffffffffff168473ffffffffffffffffffffffffffffffffffffffff168673ffffffffffffffffffffffffffffffffffffffff167ffbde797d201c681b91056529119e0b02407c7bb96a4a2c75c01fc9667232c8db85856040516125689291906137fd565b60405180910390a45050505050565b60006125a761258583612be7565b80156125a257506000848061259d5761259c613826565b5b868809115b612c15565b6125b2868686612c21565b6125bc91906135b4565b9050949350505050565b600073ffffffffffffffffffffffffffffffffffffffff168473ffffffffffffffffffffffffffffffffffffffff16036126385760006040517fe602df0500000000000000000000000000000000000000000000000000000000815260040161262f9190613032565b60405180910390fd5b600073ffffffffffffffffffffffffffffffffffffffff168373ffffffffffffffffffffffffffffffffffffffff16036126aa5760006040517f94280d620000000000000000000000000000000000000000000000000000000081526004016126a19190613032565b60405180910390fd5b81600160008673ffffffffffffffffffffffffffffffffffffffff1673ffffffffffffffffffffffffffffffffffffffff16815260200190815260200160002060008573ffffffffffffffffffffffffffffffffffffffff1673ffffffffffffffffffffffffffffffffffffffff168152602001908152602001600020819055508015612797578273ffffffffffffffffffffffffffffffffffffffff168473ffffffffffffffffffffffffffffffffffffffff167f8c5be1e5ebec7d5bd14f71427d1e84f3dd0314c0f7b2291e5b200ac8c7c3b9258460405161278e9190612d6d565b60405180910390a35b50505050565b600073ffffffffffffffffffffffffffffffffffffffff168373ffffffffffffffffffffffffffffffffffffffff16036127ef5780600260008282546127e391906135b4565b925050819055506128c2565b60008060008573ffffffffffffffffffffffffffffffffffffffff1673ffffffffffffffffffffffffffffffffffffffff1681526020019081526020016000205490508181101561287b578381836040517fe450d38c000000000000000000000000000000000000000000000000000000008152600401612872939291906135e8565b60405180910390fd5b8181036000808673ffffffffffffffffffffffffffffffffffffffff1673ffffffffffffffffffffffffffffffffffffffff16815260200190815260200160002081905550505b600073ffffffffffffffffffffffffffffffffffffffff168273ffffffffffffffffffffffffffffffffffffffff160361290b5780600260008282540392505081905550612958565b806000808473ffffffffffffffffffffffffffffffffffffffff1673ffffffffffffffffffffffffffffffffffffffff168152602001908152602001600020600082825401925050819055505b8173ffffffffffffffffffffffffffffffffffffffff168373ffffffffffffffffffffffffffffffffffffffff167fddf252ad1be2c89b69c2b068fc378daa952ba7f163c4a11628f55a4df523b3ef836040516129b59190612d6d565b60405180910390a3505050565b600080602060008451602086016000885af1806129e5576040513d6000823e3d81fd5b3d925060005191505060008214612a00576001811415612a1c565b60008473ffffffffffffffffffffffffffffffffffffffff163b145b15612a5e57836040517f5274afe7000000000000000000000000000000000000000000000000000000008152600401612a559190613032565b60405180910390fd5b50505050565b600073ffffffffffffffffffffffffffffffffffffffff168273ffffffffffffffffffffffffffffffffffffffff1603612ad65760006040517fec442f05000000000000000000000000000000000000000000000000000000008152600401612acd9190613032565b60405180910390fd5b612ae26000838361279d565b5050565b600073ffffffffffffffffffffffffffffffffffffffff168273ffffffffffffffffffffffffffffffffffffffff1603612b585760006040517f96c6fd1e000000000000000000000000000000000000000000000000000000008152600401612b4f9190613032565b60405180910390fd5b612b648260008361279d565b5050565b612be2838473ffffffffffffffffffffffffffffffffffffffff1663a9059cbb8585604051602401612b9b92919061361f565b604051602081830303815290604052915060e01b6020820180517bffffffffffffffffffffffffffffffffffffffffffffffffffffffff83818316178352505050506129c2565b505050565b600060016002836003811115612c0057612bff613855565b5b612c0a9190613884565b60ff16149050919050565b60008115159050919050565b6000806000612c308686612d09565b9150915060008203612c5657838181612c4c57612c4b613826565b5b0492505050612d02565b818411612c7657612c75612c706000861460126011612d28565b612d42565b5b600084868809905081811183039250808203915060008560000386169050808604955080830492506001818260000304019050808402831792506000600287600302189050808702600203810290508087026002038102905080870260020381029050808702600203810290508087026002038102905080870260020381029050808402955050505050505b9392505050565b6000806000198385098385029150818110828203039250509250929050565b6000612d3384612c15565b82841802821890509392505050565b634e487b71600052806020526024601cfd5b6000819050919050565b612d6781612d54565b82525050565b6000602082019050612d826000830184612d5e565b92915050565b600081519050919050565b600082825260208201905092915050565b60005b83811015612dc2578082015181840152602081019050612da7565b60008484015250505050565b6000601f19601f8301169050919050565b6000612dea82612d88565b612df48185612d93565b9350612e04818560208601612da4565b612e0d81612dce565b840191505092915050565b60006020820190508181036000830152612e328184612ddf565b905092915050565b600080fd5b612e4881612d54565b8114612e5357600080fd5b50565b600081359050612e6581612e3f565b92915050565b600060208284031215612e8157612e80612e3a565b5b6000612e8f84828501612e56565b91505092915050565b600073ffffffffffffffffffffffffffffffffffffffff82169050919050565b6000612ec382612e98565b9050919050565b612ed381612eb8565b8114612ede57600080fd5b50565b600081359050612ef081612eca565b92915050565b60008060408385031215612f0d57612f0c612e3a565b5b6000612f1b85828601612ee1565b9250506020612f2c85828601612e56565b9150509250929050565b60008115159050919050565b612f4b81612f36565b82525050565b6000602082019050612f666000830184612f42565b92915050565b600060208284031215612f8257612f81612e3a565b5b6000612f9084828501612ee1565b91505092915050565b600080600060608486031215612fb257612fb1612e3a565b5b6000612fc086828701612ee1565b9350506020612fd186828701612ee1565b9250506040612fe286828701612e56565b9150509250925092565b600060ff82169050919050565b61300281612fec565b82525050565b600060208201905061301d6000830184612ff9565b92915050565b61302c81612eb8565b82525050565b60006020820190506130476000830184613023565b92915050565b60008060006060848603121561306657613065612e3a565b5b600061307486828701612e56565b935050602061308586828701612ee1565b925050604061309686828701612e56565b9150509250925092565b6000806000606084860312156130b9576130b8612e3a565b5b60006130c786828701612ee1565b93505060206130d886828701612e56565b92505060406130e986828701612e56565b9150509250925092565b6000806040838503121561310a57613109612e3a565b5b600061311885828601612e56565b925050602061312985828601612ee1565b9150509250929050565b6000806000806080858703121561314d5761314c612e3a565b5b600061315b87828801612e56565b945050602061316c87828801612ee1565b935050604061317d87828801612ee1565b925050606061318e87828801612e56565b91505092959194509250565b6000806000606084860312156131b3576131b2612e3a565b5b60006131c186828701612e56565b93505060206131d286828701612ee1565b92505060406131e386828701612ee1565b9150509250925092565b60008060006060848603121561320657613205612e3a565b5b600061321486828701612ee1565b935050602061322586828701612e56565b925050604061323686828701612ee1565b9150509250925092565b600061324b82612eb8565b9050919050565b61325b81613240565b811461326657600080fd5b50565b60008135905061327881613252565b92915050565b60008060006060848603121561329757613296612e3a565b5b60006132a586828701612ee1565b93505060206132b686828701613269565b92505060406132c786828701612e56565b9150509250925092565b600080604083850312156132e8576132e7612e3a565b5b60006132f685828601612ee1565b925050602061330785828601612ee1565b9150509250929050565b60008151905061332081612e3f565b92915050565b60006020828403121561333c5761333b612e3a565b5b600061334a84828501613311565b91505092915050565b7f4e487b7100000000000000000000000000000000000000000000000000000000600052602260045260246000fd5b6000600282049050600182168061339a57607f821691505b6020821081036133ad576133ac613353565b5b50919050565b6133bc81612f36565b81146133c757600080fd5b50565b6000815190506133d9816133b3565b92915050565b6000602082840312156133f5576133f4612e3a565b5b6000613403848285016133ca565b91505092915050565b7f4e487b7100000000000000000000000000000000000000000000000000000000600052601160045260246000fd5b600061344682612fec565b915061345183612fec565b9250828201905060ff81111561346a5761346961340c565b5b92915050565b7f496e76616c696420746f6b656e20616464726573730000000000000000000000600082015250565b60006134a6601583612d93565b91506134b182613470565b602082019050919050565b600060208201905081810360008301526134d581613499565b9050919050565b7f496e76616c69642073656e646572206164647265737300000000000000000000600082015250565b6000613512601683612d93565b915061351d826134dc565b602082019050919050565b6000602082019050818103600083015261354181613505565b9050919050565b7f416d6f756e74206d7573742062652067726561746572207468616e207a65726f600082015250565b600061357e602083612d93565b915061358982613548565b602082019050919050565b600060208201905081810360008301526135ad81613571565b9050919050565b60006135bf82612d54565b91506135ca83612d54565b92508282019050808211156135e2576135e161340c565b5b92915050565b60006060820190506135fd6000830186613023565b61360a6020830185612d5e565b6136176040830184612d5e565b949350505050565b60006040820190506136346000830185613023565b6136416020830184612d5e565b9392505050565b60008160011c9050919050565b6000808291508390505b600185111561369f5780860481111561367b5761367a61340c565b5b600185161561368a5780820291505b808102905061369885613648565b945061365f565b94509492505050565b6000826136b85760019050613774565b816136c65760009050613774565b81600181146136dc57600281146136e657613715565b6001915050613774565b60ff8411156136f8576136f761340c565b5b8360020a91508482111561370f5761370e61340c565b5b50613774565b5060208310610133831016604e8410600b841016171561374a5782820a9050838111156137455761374461340c565b5b613774565b6137578484846001613655565b9250905081840481111561376e5761376d61340c565b5b81810290505b9392505050565b600061378682612d54565b915061379183612fec565b92506137be7fffffffffffffffffffffffffffffffffffffffffffffffffffffffffffffffff84846136a8565b905092915050565b60006060820190506137db6000830186613023565b6137e86020830185613023565b6137f56040830184612d5e565b949350505050565b60006040820190506138126000830185612d5e565b61381f6020830184612d5e565b9392505050565b7f4e487b7100000000000000000000000000000000000000000000000000000000600052601260045260246000fd5b7f4e487b7100000000000000000000000000000000000000000000000000000000600052602160045260246000fd5b600061388f82612fec565b915061389a83612fec565b9250826138aa576138a9613826565b5b82820690509291505056fea2646970667358221220872fe790c2229e37962858044e2d2a6edbe3db9ed5221248253b55f5aa7c119a64736f6c63430008140033",
  "linkReferences": {},
  "deployedLinkReferences": {}
}